{
  "contractName": "SapienStaking",
  "abi": [
    {
      "inputs": [],
      "stateMutability": "nonpayable",
      "type": "constructor"
    },
    {
      "anonymous": false,
      "inputs": [
        {
          "indexed": false,
          "internalType": "address",
          "name": "userAddress",
          "type": "address"
        },
        {
          "indexed": false,
          "internalType": "address payable",
          "name": "relayerAddress",
          "type": "address"
        },
        {
          "indexed": false,
          "internalType": "bytes",
          "name": "functionSignature",
          "type": "bytes"
        }
      ],
      "name": "MetaTransactionExecuted",
      "type": "event"
    },
    {
      "anonymous": false,
      "inputs": [
        {
          "indexed": true,
          "internalType": "address",
          "name": "previousOwner",
          "type": "address"
        },
        {
          "indexed": true,
          "internalType": "address",
          "name": "newOwner",
          "type": "address"
        }
      ],
      "name": "OwnershipTransferred",
      "type": "event"
    },
    {
      "anonymous": false,
      "inputs": [
        {
          "indexed": true,
          "internalType": "address",
          "name": "holder",
          "type": "address"
        },
        {
          "indexed": false,
          "internalType": "uint256",
          "name": "tokens",
          "type": "uint256"
        },
        {
          "indexed": false,
          "internalType": "bytes",
          "name": "reason",
          "type": "bytes"
        }
      ],
      "name": "Slashed",
      "type": "event"
    },
    {
      "anonymous": false,
      "inputs": [
        {
          "indexed": true,
          "internalType": "address",
          "name": "holder",
          "type": "address"
        },
        {
          "indexed": false,
          "internalType": "uint256",
          "name": "extraTokens",
          "type": "uint256"
        }
      ],
      "name": "Staked",
      "type": "event"
    },
    {
      "anonymous": false,
      "inputs": [
        {
          "indexed": true,
          "internalType": "address",
          "name": "holder",
          "type": "address"
        },
        {
          "indexed": false,
          "internalType": "uint256",
          "name": "releasedTokens",
          "type": "uint256"
        }
      ],
      "name": "Unstaked",
      "type": "event"
    },
    {
      "inputs": [],
      "name": "CHILD_CHAIN_ID",
      "outputs": [
        {
          "internalType": "uint256",
          "name": "",
          "type": "uint256"
        }
      ],
      "stateMutability": "view",
      "type": "function"
    },
    {
      "inputs": [],
      "name": "CHILD_CHAIN_ID_BYTES",
      "outputs": [
        {
          "internalType": "bytes",
          "name": "",
          "type": "bytes"
        }
      ],
      "stateMutability": "view",
      "type": "function"
    },
    {
      "inputs": [],
      "name": "ERC712_VERSION",
      "outputs": [
        {
          "internalType": "string",
          "name": "",
          "type": "string"
        }
      ],
      "stateMutability": "view",
      "type": "function"
    },
    {
      "inputs": [],
      "name": "ROOT_CHAIN_ID",
      "outputs": [
        {
          "internalType": "uint256",
          "name": "",
          "type": "uint256"
        }
      ],
      "stateMutability": "view",
      "type": "function"
    },
    {
      "inputs": [],
      "name": "ROOT_CHAIN_ID_BYTES",
      "outputs": [
        {
          "internalType": "bytes",
          "name": "",
          "type": "bytes"
        }
      ],
      "stateMutability": "view",
      "type": "function"
    },
    {
      "inputs": [],
      "name": "assistant",
      "outputs": [
        {
          "internalType": "address",
          "name": "",
          "type": "address"
        }
      ],
      "stateMutability": "view",
      "type": "function"
    },
    {
      "inputs": [],
      "name": "controller",
      "outputs": [
        {
          "internalType": "address",
          "name": "",
          "type": "address"
        }
      ],
      "stateMutability": "view",
      "type": "function"
    },
    {
      "inputs": [
        {
          "internalType": "address",
          "name": "userAddress",
          "type": "address"
        },
        {
          "internalType": "bytes",
          "name": "functionSignature",
          "type": "bytes"
        },
        {
          "internalType": "bytes32",
          "name": "sigR",
          "type": "bytes32"
        },
        {
          "internalType": "bytes32",
          "name": "sigS",
          "type": "bytes32"
        },
        {
          "internalType": "uint8",
          "name": "sigV",
          "type": "uint8"
        }
      ],
      "name": "executeMetaTransaction",
      "outputs": [
        {
          "internalType": "bytes",
          "name": "",
          "type": "bytes"
        }
      ],
      "stateMutability": "payable",
      "type": "function",
      "constant": false
    },
    {
      "inputs": [
        {
          "internalType": "address",
          "name": "user",
          "type": "address"
        }
      ],
      "name": "getNonce",
      "outputs": [
        {
          "internalType": "uint256",
          "name": "nonce",
          "type": "uint256"
        }
      ],
      "stateMutability": "view",
      "type": "function"
    },
    {
      "inputs": [],
      "name": "owner",
      "outputs": [
        {
          "internalType": "address",
          "name": "",
          "type": "address"
        }
      ],
      "stateMutability": "view",
      "type": "function"
    },
    {
      "inputs": [],
      "name": "renounceOwnership",
      "outputs": [],
      "stateMutability": "nonpayable",
      "type": "function",
      "constant": false
    },
    {
      "inputs": [],
      "name": "slasher",
      "outputs": [
        {
          "internalType": "address",
          "name": "",
          "type": "address"
        }
      ],
      "stateMutability": "view",
      "type": "function"
    },
    {
      "inputs": [],
      "name": "tokenContract",
      "outputs": [
        {
          "internalType": "address",
          "name": "",
          "type": "address"
        }
      ],
      "stateMutability": "view",
      "type": "function"
    },
    {
      "inputs": [
        {
          "internalType": "address",
          "name": "newOwner",
          "type": "address"
        }
      ],
      "name": "transferOwnership",
      "outputs": [],
      "stateMutability": "nonpayable",
      "type": "function",
      "constant": false
    },
    {
      "stateMutability": "payable",
      "type": "receive"
    },
    {
      "inputs": [
        {
          "internalType": "address",
          "name": "_controller",
          "type": "address"
        }
      ],
      "name": "changeController",
      "outputs": [],
      "stateMutability": "nonpayable",
      "type": "function",
      "constant": false
    },
    {
      "inputs": [
        {
          "internalType": "address",
          "name": "_assistant",
          "type": "address"
        }
      ],
      "name": "changeAssistant",
      "outputs": [],
      "stateMutability": "nonpayable",
      "type": "function",
      "constant": false
    },
    {
      "inputs": [
        {
          "internalType": "address",
          "name": "_slasher",
          "type": "address"
        }
      ],
      "name": "changeSlasher",
      "outputs": [],
      "stateMutability": "nonpayable",
      "type": "function",
      "constant": false
    },
    {
      "inputs": [
        {
          "internalType": "address",
          "name": "_tokenContract",
          "type": "address"
        }
      ],
      "name": "changeTokenContract",
      "outputs": [],
      "stateMutability": "nonpayable",
      "type": "function",
      "constant": false
    },
    {
      "inputs": [
        {
          "internalType": "address",
          "name": "_holder",
          "type": "address"
        }
      ],
      "name": "getStake",
      "outputs": [
        {
          "internalType": "uint256",
          "name": "tokens",
          "type": "uint256"
        },
        {
          "internalType": "uint256",
          "name": "timestamp",
          "type": "uint256"
        }
      ],
      "stateMutability": "view",
      "type": "function"
    },
    {
      "inputs": [],
      "name": "totalStaked",
      "outputs": [
        {
          "internalType": "uint256",
          "name": "",
          "type": "uint256"
        }
      ],
      "stateMutability": "view",
      "type": "function"
    },
    {
      "inputs": [
        {
          "internalType": "address",
          "name": "_beneficiary",
          "type": "address"
        },
        {
          "internalType": "uint256",
          "name": "_value",
          "type": "uint256"
        }
      ],
      "name": "autoStake",
      "outputs": [],
      "stateMutability": "nonpayable",
      "type": "function",
      "constant": false
    },
    {
      "inputs": [
        {
          "internalType": "address[]",
          "name": "_beneficiaries",
          "type": "address[]"
        },
        {
          "internalType": "uint256[]",
          "name": "_extraTokens",
          "type": "uint256[]"
        }
      ],
      "name": "stakeBatch",
      "outputs": [],
      "stateMutability": "nonpayable",
      "type": "function",
      "constant": false
    },
    {
      "inputs": [
        {
          "internalType": "uint256",
          "name": "_requestedTokens",
          "type": "uint256"
        }
      ],
      "name": "unstake",
      "outputs": [],
      "stateMutability": "nonpayable",
      "type": "function",
      "constant": false
    },
    {
      "inputs": [
        {
          "internalType": "address",
          "name": "_sender",
          "type": "address"
        },
        {
          "internalType": "uint256",
          "name": "_requestedTokens",
          "type": "uint256"
        }
      ],
      "name": "unstakeAssisted",
      "outputs": [],
      "stateMutability": "nonpayable",
      "type": "function",
      "constant": false
    },
    {
      "inputs": [
        {
          "internalType": "address",
          "name": "_holder",
          "type": "address"
        },
        {
          "internalType": "uint256",
          "name": "_tokens",
          "type": "uint256"
        },
        {
          "internalType": "bytes",
          "name": "_reason",
          "type": "bytes"
        }
      ],
      "name": "slash",
      "outputs": [],
      "stateMutability": "nonpayable",
      "type": "function",
      "constant": false
    }
  ],
  "bytecode": "0x60806040523480156200001157600080fd5b506040518060400160405280600d81526020017f53617069656e5374616b696e67000000000000000000000000000000000000008152506040518060400160405280600181526020017f31000000000000000000000000000000000000000000000000000000000000008152506005828282600062000095620001e660201b60201c565b9050806000806101000a81548173ffffffffffffffffffffffffffffffffffffffff021916908373ffffffffffffffffffffffffffffffffffffffff1602179055508073ffffffffffffffffffffffffffffffffffffffff16600073ffffffffffffffffffffffffffffffffffffffff167f8be0079c531659141344cd1fd0a4f28419497f9722a3daafe3b4186f6b6457e060405160405180910390a350604051806080016040528060528152602001620030926052913980519060200120838051906020012083805190602001208330604051602001808681526020018581526020018481526020018381526020018273ffffffffffffffffffffffffffffffffffffffff1673ffffffffffffffffffffffffffffffffffffffff16815260200195505050505050604051602081830303815290604052805190602001206001819055505050505050506200029d565b60003073ffffffffffffffffffffffffffffffffffffffff163373ffffffffffffffffffffffffffffffffffffffff161415620002935760606000368080601f016020809104026020016040519081016040528093929190818152602001838380828437600081840152601f19601f820116905080830192505050505050509050600080369050905073ffffffffffffffffffffffffffffffffffffffff81830151169250505062000297565b3390505b80905090565b612de580620002ad6000396000f3fe60806040526004361061016a5760003560e01c8063626381a0116100d1578063a5f251821161008a578063bd2d032711610064578063bd2d032714610995578063d814386014610a87578063f2fde38b14610be0578063f77c479114610c3157610171565b8063a5f2518214610888578063b1344271146108e3578063baffb69f1461093a57610171565b8063626381a01461072d578063715018a6146107585780637a7664601461076f578063817b1cd2146107db5780638acfcaf7146108065780638da5cb5b1461083157610171565b80632d0335ab116101235780632d0335ab146105435780632e17de78146105a857806335a3a562146105e35780633cebb82314610634578063523aee691461068557806355a373d6146106d657610171565b80630b54817c146101765780630c53c51c146102065780630dd7531a1461037b5780630f7e59701461040b5780632569cd6c1461049b5780632aa670fe146104f257610171565b3661017157005b600080fd5b34801561018257600080fd5b5061018b610c88565b6040518080602001828103825283818151815260200191508051906020019080838360005b838110156101cb5780820151818401526020810190506101b0565b50505050905090810190601f1680156101f85780820380516001836020036101000a031916815260200191505b509250505060405180910390f35b610300600480360360a081101561021c57600080fd5b81019080803573ffffffffffffffffffffffffffffffffffffffff1690602001909291908035906020019064010000000081111561025957600080fd5b82018360208201111561026b57600080fd5b8035906020019184600183028401116401000000008311171561028d57600080fd5b91908080601f016020809104026020016040519081016040528093929190818152602001838380828437600081840152601f19601f8201169050808301925050505050505091929192908035906020019092919080359060200190929190803560ff169060200190929190505050610cc1565b6040518080602001828103825283818151815260200191508051906020019080838360005b83811015610340578082015181840152602081019050610325565b50505050905090810190601f16801561036d5780820380516001836020036101000a031916815260200191505b509250505060405180910390f35b34801561038757600080fd5b50610390611117565b6040518080602001828103825283818151815260200191508051906020019080838360005b838110156103d05780820151818401526020810190506103b5565b50505050905090810190601f1680156103fd5780820380516001836020036101000a031916815260200191505b509250505060405180910390f35b34801561041757600080fd5b50610420611150565b6040518080602001828103825283818151815260200191508051906020019080838360005b83811015610460578082015181840152602081019050610445565b50505050905090810190601f16801561048d5780820380516001836020036101000a031916815260200191505b509250505060405180910390f35b3480156104a757600080fd5b506104b0611189565b604051808273ffffffffffffffffffffffffffffffffffffffff1673ffffffffffffffffffffffffffffffffffffffff16815260200191505060405180910390f35b3480156104fe57600080fd5b506105416004803603602081101561051557600080fd5b81019080803573ffffffffffffffffffffffffffffffffffffffff1690602001909291905050506111af565b005b34801561054f57600080fd5b506105926004803603602081101561056657600080fd5b81019080803573ffffffffffffffffffffffffffffffffffffffff1690602001909291905050506112bc565b6040518082815260200191505060405180910390f35b3480156105b457600080fd5b506105e1600480360360208110156105cb57600080fd5b8101908080359060200190929190505050611305565b005b3480156105ef57600080fd5b506106326004803603602081101561060657600080fd5b81019080803573ffffffffffffffffffffffffffffffffffffffff169060200190929190505050611319565b005b34801561064057600080fd5b506106836004803603602081101561065757600080fd5b81019080803573ffffffffffffffffffffffffffffffffffffffff169060200190929190505050611426565b005b34801561069157600080fd5b506106d4600480360360208110156106a857600080fd5b81019080803573ffffffffffffffffffffffffffffffffffffffff169060200190929190505050611533565b005b3480156106e257600080fd5b506106eb611640565b604051808273ffffffffffffffffffffffffffffffffffffffff1673ffffffffffffffffffffffffffffffffffffffff16815260200191505060405180910390f35b34801561073957600080fd5b50610742611666565b6040518082815260200191505060405180910390f35b34801561076457600080fd5b5061076d61166c565b005b34801561077b57600080fd5b506107be6004803603602081101561079257600080fd5b81019080803573ffffffffffffffffffffffffffffffffffffffff1690602001909291905050506117f4565b604051808381526020018281526020019250505060405180910390f35b3480156107e757600080fd5b506107f061184e565b6040518082815260200191505060405180910390f35b34801561081257600080fd5b5061081b61192f565b6040518082815260200191505060405180910390f35b34801561083d57600080fd5b50610846611934565b604051808273ffffffffffffffffffffffffffffffffffffffff1673ffffffffffffffffffffffffffffffffffffffff16815260200191505060405180910390f35b34801561089457600080fd5b506108e1600480360360408110156108ab57600080fd5b81019080803573ffffffffffffffffffffffffffffffffffffffff1690602001909291908035906020019092919050505061195d565b005b3480156108ef57600080fd5b506108f8611a2e565b604051808273ffffffffffffffffffffffffffffffffffffffff1673ffffffffffffffffffffffffffffffffffffffff16815260200191505060405180910390f35b34801561094657600080fd5b506109936004803603604081101561095d57600080fd5b81019080803573ffffffffffffffffffffffffffffffffffffffff16906020019092919080359060200190929190505050611a54565b005b3480156109a157600080fd5b50610a85600480360360608110156109b857600080fd5b81019080803573ffffffffffffffffffffffffffffffffffffffff16906020019092919080359060200190929190803590602001906401000000008111156109ff57600080fd5b820183602082011115610a1157600080fd5b80359060200191846001830284011164010000000083111715610a3357600080fd5b91908080601f016020809104026020016040519081016040528093929190818152602001838380828437600081840152601f19601f820116905080830192505050505050509192919290505050611b25565b005b348015610a9357600080fd5b50610bde60048036036040811015610aaa57600080fd5b8101908080359060200190640100000000811115610ac757600080fd5b820183602082011115610ad957600080fd5b80359060200191846020830284011164010000000083111715610afb57600080fd5b919080806020026020016040519081016040528093929190818152602001838360200280828437600081840152601f19601f82011690508083019250505050505050919291929080359060200190640100000000811115610b5b57600080fd5b820183602082011115610b6d57600080fd5b80359060200191846020830284011164010000000083111715610b8f57600080fd5b919080806020026020016040519081016040528093929190818152602001838360200280828437600081840152601f19601f820116905080830192505050505050509192919290505050611f05565b005b348015610bec57600080fd5b50610c2f60048036036020811015610c0357600080fd5b81019080803573ffffffffffffffffffffffffffffffffffffffff16906020019092919050505061217d565b005b348015610c3d57600080fd5b50610c4661238a565b604051808273ffffffffffffffffffffffffffffffffffffffff1673ffffffffffffffffffffffffffffffffffffffff16815260200191505060405180910390f35b6040518060400160405280600281526020017f3a9900000000000000000000000000000000000000000000000000000000000081525081565b6060610ccb612cc7565b6040518060600160405280600260008a73ffffffffffffffffffffffffffffffffffffffff1673ffffffffffffffffffffffffffffffffffffffff1681526020019081526020016000205481526020018873ffffffffffffffffffffffffffffffffffffffff168152602001878152509050610d4a87828787876123b0565b610d9f576040517f08c379a0000000000000000000000000000000000000000000000000000000008152600401808060200182810382526021815260200180612d8f6021913960400191505060405180910390fd5b610df26001600260008a73ffffffffffffffffffffffffffffffffffffffff1673ffffffffffffffffffffffffffffffffffffffff1681526020019081526020016000205461246290919063ffffffff16565b600260008973ffffffffffffffffffffffffffffffffffffffff1673ffffffffffffffffffffffffffffffffffffffff168152602001908152602001600020819055507f5845892132946850460bff5a0083f71031bc5bf9aadcd40f1de79423eac9b10b873388604051808473ffffffffffffffffffffffffffffffffffffffff1673ffffffffffffffffffffffffffffffffffffffff1681526020018373ffffffffffffffffffffffffffffffffffffffff1673ffffffffffffffffffffffffffffffffffffffff16815260200180602001828103825283818151815260200191508051906020019080838360005b83811015610efd578082015181840152602081019050610ee2565b50505050905090810190601f168015610f2a5780820380516001836020036101000a031916815260200191505b5094505050505060405180910390a1600060603073ffffffffffffffffffffffffffffffffffffffff16888a6040516020018083805190602001908083835b60208310610f8c5780518252602082019150602081019050602083039250610f69565b6001836020036101000a0380198251168184511680821785525050505050509050018273ffffffffffffffffffffffffffffffffffffffff1673ffffffffffffffffffffffffffffffffffffffff1660601b8152601401925050506040516020818303038152906040526040518082805190602001908083835b602083106110295780518252602082019150602081019050602083039250611006565b6001836020036101000a0380198251168184511680821785525050505050509050019150506000604051808303816000865af19150503d806000811461108b576040519150601f19603f3d011682016040523d82523d6000602084013e611090565b606091505b509150915081611108576040517f08c379a000000000000000000000000000000000000000000000000000000000815260040180806020018281038252601c8152602001807f46756e6374696f6e2063616c6c206e6f74207375636365737366756c0000000081525060200191505060405180910390fd5b80935050505095945050505050565b6040518060400160405280600181526020017f050000000000000000000000000000000000000000000000000000000000000081525081565b6040518060400160405280600181526020017f310000000000000000000000000000000000000000000000000000000000000081525081565b600560009054906101000a900473ffffffffffffffffffffffffffffffffffffffff1681565b6111b76124ea565b73ffffffffffffffffffffffffffffffffffffffff166000809054906101000a900473ffffffffffffffffffffffffffffffffffffffff1673ffffffffffffffffffffffffffffffffffffffff1614611278576040517f08c379a00000000000000000000000000000000000000000000000000000000081526004018080602001828103825260208152602001807f4f776e61626c653a2063616c6c6572206973206e6f7420746865206f776e657281525060200191505060405180910390fd5b80600560006101000a81548173ffffffffffffffffffffffffffffffffffffffff021916908373ffffffffffffffffffffffffffffffffffffffff16021790555050565b6000600260008373ffffffffffffffffffffffffffffffffffffffff1673ffffffffffffffffffffffffffffffffffffffff168152602001908152602001600020549050919050565b6113166113106124ea565b8261259f565b50565b6113216124ea565b73ffffffffffffffffffffffffffffffffffffffff166000809054906101000a900473ffffffffffffffffffffffffffffffffffffffff1673ffffffffffffffffffffffffffffffffffffffff16146113e2576040517f08c379a00000000000000000000000000000000000000000000000000000000081526004018080602001828103825260208152602001807f4f776e61626c653a2063616c6c6572206973206e6f7420746865206f776e657281525060200191505060405180910390fd5b80600660006101000a81548173ffffffffffffffffffffffffffffffffffffffff021916908373ffffffffffffffffffffffffffffffffffffffff16021790555050565b61142e6124ea565b73ffffffffffffffffffffffffffffffffffffffff166000809054906101000a900473ffffffffffffffffffffffffffffffffffffffff1673ffffffffffffffffffffffffffffffffffffffff16146114ef576040517f08c379a00000000000000000000000000000000000000000000000000000000081526004018080602001828103825260208152602001807f4f776e61626c653a2063616c6c6572206973206e6f7420746865206f776e657281525060200191505060405180910390fd5b80600460006101000a81548173ffffffffffffffffffffffffffffffffffffffff021916908373ffffffffffffffffffffffffffffffffffffffff16021790555050565b61153b6124ea565b73ffffffffffffffffffffffffffffffffffffffff166000809054906101000a900473ffffffffffffffffffffffffffffffffffffffff1673ffffffffffffffffffffffffffffffffffffffff16146115fc576040517f08c379a00000000000000000000000000000000000000000000000000000000081526004018080602001828103825260208152602001807f4f776e61626c653a2063616c6c6572206973206e6f7420746865206f776e657281525060200191505060405180910390fd5b80600760006101000a81548173ffffffffffffffffffffffffffffffffffffffff021916908373ffffffffffffffffffffffffffffffffffffffff16021790555050565b600760009054906101000a900473ffffffffffffffffffffffffffffffffffffffff1681565b613a9981565b6116746124ea565b73ffffffffffffffffffffffffffffffffffffffff166000809054906101000a900473ffffffffffffffffffffffffffffffffffffffff1673ffffffffffffffffffffffffffffffffffffffff1614611735576040517f08c379a00000000000000000000000000000000000000000000000000000000081526004018080602001828103825260208152602001807f4f776e61626c653a2063616c6c6572206973206e6f7420746865206f776e657281525060200191505060405180910390fd5b600073ffffffffffffffffffffffffffffffffffffffff166000809054906101000a900473ffffffffffffffffffffffffffffffffffffffff1673ffffffffffffffffffffffffffffffffffffffff167f8be0079c531659141344cd1fd0a4f28419497f9722a3daafe3b4186f6b6457e060405160405180910390a360008060006101000a81548173ffffffffffffffffffffffffffffffffffffffff021916908373ffffffffffffffffffffffffffffffffffffffff160217905550565b6000806000600360008573ffffffffffffffffffffffffffffffffffffffff1673ffffffffffffffffffffffffffffffffffffffff1681526020019081526020016000209050806000015481600101549250925050915091565b6000600760009054906101000a900473ffffffffffffffffffffffffffffffffffffffff1673ffffffffffffffffffffffffffffffffffffffff1663af46aa08306040518263ffffffff1660e01b8152600401808273ffffffffffffffffffffffffffffffffffffffff1673ffffffffffffffffffffffffffffffffffffffff16815260200191505060206040518083038186803b1580156118ef57600080fd5b505afa158015611903573d6000803e3d6000fd5b505050506040513d602081101561191957600080fd5b8101908080519060200190929190505050905090565b600581565b60008060009054906101000a900473ffffffffffffffffffffffffffffffffffffffff16905090565b600560009054906101000a900473ffffffffffffffffffffffffffffffffffffffff1673ffffffffffffffffffffffffffffffffffffffff163373ffffffffffffffffffffffffffffffffffffffff1614611a20576040517f08c379a000000000000000000000000000000000000000000000000000000000815260040180806020018281038252601c8152602001807f4f6e6c7920617373697374616e742063616e2063616c6c20746869730000000081525060200191505060405180910390fd5b611a2a828261259f565b5050565b600660009054906101000a900473ffffffffffffffffffffffffffffffffffffffff1681565b600460009054906101000a900473ffffffffffffffffffffffffffffffffffffffff1673ffffffffffffffffffffffffffffffffffffffff163373ffffffffffffffffffffffffffffffffffffffff1614611b17576040517f08c379a000000000000000000000000000000000000000000000000000000000815260040180806020018281038252601d8152602001807f4f6e6c7920636f6e74726f6c6c65722063616e2063616c6c207468697300000081525060200191505060405180910390fd5b611b218282612841565b5050565b600660009054906101000a900473ffffffffffffffffffffffffffffffffffffffff1673ffffffffffffffffffffffffffffffffffffffff163373ffffffffffffffffffffffffffffffffffffffff1614611be8576040517f08c379a000000000000000000000000000000000000000000000000000000000815260040180806020018281038252601a8152602001807f4f6e6c7920736c61736865722063616e2063616c6c207468697300000000000081525060200191505060405180910390fd5b6000611bf2611934565b905060008390506000600360008773ffffffffffffffffffffffffffffffffffffffff1673ffffffffffffffffffffffffffffffffffffffff16815260200190815260200160002060000154905080821115611c4c578091505b611c5f8282612aa690919063ffffffff16565b600360008873ffffffffffffffffffffffffffffffffffffffff1673ffffffffffffffffffffffffffffffffffffffff1681526020019081526020016000206000018190555042600360008873ffffffffffffffffffffffffffffffffffffffff1673ffffffffffffffffffffffffffffffffffffffff16815260200190815260200160002060010181905550600760009054906101000a900473ffffffffffffffffffffffffffffffffffffffff1673ffffffffffffffffffffffffffffffffffffffff1663a9059cbb84846040518363ffffffff1660e01b8152600401808373ffffffffffffffffffffffffffffffffffffffff1673ffffffffffffffffffffffffffffffffffffffff16815260200182815260200192505050602060405180830381600087803b158015611d9557600080fd5b505af1158015611da9573d6000803e3d6000fd5b505050506040513d6020811015611dbf57600080fd5b8101908080519060200190929190505050611e42576040517f08c379a00000000000000000000000000000000000000000000000000000000081526004018080602001828103825260168152602001807f7472616e7366657228292063616c6c206661696c65640000000000000000000081525060200191505060405180910390fd5b8573ffffffffffffffffffffffffffffffffffffffff167f1a0a5c81c2e13153fb1f989295e0deca0190f3c9b856051229e7985a71c1cfb283866040518083815260200180602001828103825283818151815260200191508051906020019080838360005b83811015611ec2578082015181840152602081019050611ea7565b50505050905090810190601f168015611eef5780820380516001836020036101000a031916815260200191505b50935050505060405180910390a2505050505050565b60008251905080825114611f81576040517f08c379a000000000000000000000000000000000000000000000000000000000815260040180806020018281038252601d8152602001807f506172616d6574657220636f756e747320646f206e6f74206d6174636800000081525060200191505060405180910390fd5b600080905060008090505b82811015611fec576000848281518110611fa257fe5b60200260200101519050611fc9868381518110611fbb57fe5b602002602001015182612841565b611fdc818461246290919063ffffffff16565b9250508080600101915050611f8c565b50600760009054906101000a900473ffffffffffffffffffffffffffffffffffffffff1673ffffffffffffffffffffffffffffffffffffffff166323b872dd3330846040518463ffffffff1660e01b8152600401808473ffffffffffffffffffffffffffffffffffffffff1673ffffffffffffffffffffffffffffffffffffffff1681526020018373ffffffffffffffffffffffffffffffffffffffff1673ffffffffffffffffffffffffffffffffffffffff1681526020018281526020019350505050602060405180830381600087803b1580156120ca57600080fd5b505af11580156120de573d6000803e3d6000fd5b505050506040513d60208110156120f457600080fd5b8101908080519060200190929190505050612177576040517f08c379a00000000000000000000000000000000000000000000000000000000081526004018080602001828103825260158152602001807f7472616e7366657246726f6d2829206661696c6564000000000000000000000081525060200191505060405180910390fd5b50505050565b6121856124ea565b73ffffffffffffffffffffffffffffffffffffffff166000809054906101000a900473ffffffffffffffffffffffffffffffffffffffff1673ffffffffffffffffffffffffffffffffffffffff1614612246576040517f08c379a00000000000000000000000000000000000000000000000000000000081526004018080602001828103825260208152602001807f4f776e61626c653a2063616c6c6572206973206e6f7420746865206f776e657281525060200191505060405180910390fd5b600073ffffffffffffffffffffffffffffffffffffffff168173ffffffffffffffffffffffffffffffffffffffff1614156122cc576040517f08c379a0000000000000000000000000000000000000000000000000000000008152600401808060200182810382526026815260200180612d426026913960400191505060405180910390fd5b8073ffffffffffffffffffffffffffffffffffffffff166000809054906101000a900473ffffffffffffffffffffffffffffffffffffffff1673ffffffffffffffffffffffffffffffffffffffff167f8be0079c531659141344cd1fd0a4f28419497f9722a3daafe3b4186f6b6457e060405160405180910390a3806000806101000a81548173ffffffffffffffffffffffffffffffffffffffff021916908373ffffffffffffffffffffffffffffffffffffffff16021790555050565b600460009054906101000a900473ffffffffffffffffffffffffffffffffffffffff1681565b600060016123c56123c087612af0565b612b96565b83868660405160008152602001604052604051808581526020018460ff1660ff1681526020018381526020018281526020019450505050506020604051602081039080840390855afa15801561241f573d6000803e3d6000fd5b5050506020604051035173ffffffffffffffffffffffffffffffffffffffff168673ffffffffffffffffffffffffffffffffffffffff1614905095945050505050565b6000808284019050838110156124e0576040517f08c379a000000000000000000000000000000000000000000000000000000000815260040180806020018281038252601b8152602001807f536166654d6174683a206164646974696f6e206f766572666c6f77000000000081525060200191505060405180910390fd5b8091505092915050565b60003073ffffffffffffffffffffffffffffffffffffffff163373ffffffffffffffffffffffffffffffffffffffff1614156125955760606000368080601f016020809104026020016040519081016040528093929190818152602001838380828437600081840152601f19601f820116905080830192505050505050509050600080369050905073ffffffffffffffffffffffffffffffffffffffff818301511692505050612599565b3390505b80905090565b6000600360008473ffffffffffffffffffffffffffffffffffffffff1673ffffffffffffffffffffffffffffffffffffffff16815260200190815260200160002090506000816000015490506000839050818111156125fc578190505b60008111612672576040517f08c379a000000000000000000000000000000000000000000000000000000000815260040180806020018281038252601a8152602001807f43616e6e6f7420756e7374616b65207a65726f20746f6b656e7300000000000081525060200191505060405180910390fd5b6126858183612aa690919063ffffffff16565b8360000181905550428360010181905550600760009054906101000a900473ffffffffffffffffffffffffffffffffffffffff1673ffffffffffffffffffffffffffffffffffffffff1663a9059cbb86836040518363ffffffff1660e01b8152600401808373ffffffffffffffffffffffffffffffffffffffff1673ffffffffffffffffffffffffffffffffffffffff16815260200182815260200192505050602060405180830381600087803b15801561273f57600080fd5b505af1158015612753573d6000803e3d6000fd5b505050506040513d602081101561276957600080fd5b81019080805190602001909291905050506127ec576040517f08c379a00000000000000000000000000000000000000000000000000000000081526004018080602001828103825260168152602001807f7472616e7366657228292063616c6c206661696c65640000000000000000000081525060200191505060405180910390fd5b8473ffffffffffffffffffffffffffffffffffffffff167f0f5bb82176feb1b5e747e28471aa92156a04d9f3ab9f45f28e2d704232b93f75826040518082815260200191505060405180910390a25050505050565b600073ffffffffffffffffffffffffffffffffffffffff168273ffffffffffffffffffffffffffffffffffffffff1614156128e4576040517f08c379a000000000000000000000000000000000000000000000000000000000815260040180806020018281038252601b8152602001807f42656e65666963696172792061646472657373206973207a65726f000000000081525060200191505060405180910390fd5b3073ffffffffffffffffffffffffffffffffffffffff168273ffffffffffffffffffffffffffffffffffffffff161415612969576040517f08c379a0000000000000000000000000000000000000000000000000000000008152600401808060200182810382526027815260200180612d686027913960400191505060405180910390fd5b603c60020a81106129e2576040517f08c379a00000000000000000000000000000000000000000000000000000000081526004018080602001828103825260168152602001807f5374616b696e6720616d6f756e7420746f6f206269670000000000000000000081525060200191505060405180910390fd5b6000600360008473ffffffffffffffffffffffffffffffffffffffff1673ffffffffffffffffffffffffffffffffffffffff1681526020019081526020016000209050600081600001549050612a41838261246290919063ffffffff16565b82600001819055504282600101819055508373ffffffffffffffffffffffffffffffffffffffff167f9e71bc8eea02a63969f509818f2dafb9254532904319f9dbda79b67bd34a5f3d846040518082815260200191505060405180910390a250505050565b6000612ae883836040518060400160405280601e81526020017f536166654d6174683a207375627472616374696f6e206f766572666c6f770000815250612bfd565b905092915050565b6000604051806080016040528060438152602001612cff604391398051906020012082600001518360200151846040015180519060200120604051602001808581526020018481526020018373ffffffffffffffffffffffffffffffffffffffff1673ffffffffffffffffffffffffffffffffffffffff168152602001828152602001945050505050604051602081830303815290604052805190602001209050919050565b6000612ba0612cbd565b8260405160200180807f190100000000000000000000000000000000000000000000000000000000000081525060020183815260200182815260200192505050604051602081830303815290604052805190602001209050919050565b6000838311158290612caa576040517f08c379a00000000000000000000000000000000000000000000000000000000081526004018080602001828103825283818151815260200191508051906020019080838360005b83811015612c6f578082015181840152602081019050612c54565b50505050905090810190601f168015612c9c5780820380516001836020036101000a031916815260200191505b509250505060405180910390fd5b5060008385039050809150509392505050565b6000600154905090565b604051806060016040528060008152602001600073ffffffffffffffffffffffffffffffffffffffff16815260200160608152509056fe4d6574615472616e73616374696f6e2875696e74323536206e6f6e63652c616464726573732066726f6d2c62797465732066756e6374696f6e5369676e6174757265294f776e61626c653a206e6577206f776e657220697320746865207a65726f206164647265737342656e65666963696172792061646472657373206973207374616b696e6720636f6e74726163745369676e657220616e64207369676e617475726520646f206e6f74206d61746368a26469706673582212207ce7adf188dd8bba91c66d11cd9210f77c4ef6202c2fb5a28a33df6cac971cb064736f6c63430006060033454950373132446f6d61696e28737472696e67206e616d652c737472696e672076657273696f6e2c75696e7432353620636861696e49642c6164647265737320766572696679696e67436f6e747261637429",
  "immutableReferences": {},
  "source": "pragma solidity ^0.6.6;\n\nimport \"@openzeppelin/contracts/access/Ownable.sol\";\nimport \"@openzeppelin/contracts/math/SafeMath.sol\";\nimport {NetworkAgnostic} from \"./common/NetworkAgnostic.sol\";\nimport \"./ISapienPlatformSPN.sol\";\nimport \"./ISapienStaking.sol\";\nimport \"./ChainConstants.sol\";\n\n\ncontract SapienStaking is ISapienStaking, Ownable, NetworkAgnostic, ChainConstants {\n\n\tusing SafeMath for uint256;\n\n\tuint256 constant SAFE_UINT = uint256(2) ** uint256(60); // Numbers that can be multiplied by seconds.\n\n\tstruct Stake {\n\t\tuint256 tokens;                // Total amount of stake\n\t\tuint256 timestamp;             // Time of last update\n\t}\n\n\tmapping(address => Stake) stakes;\n\taddress public controller;\n\taddress public assistant;\n\taddress public slasher;\n\taddress public tokenContract;\n\n\tevent Staked(address indexed holder, uint256 extraTokens);\n\tevent Unstaked(address indexed holder, uint256 releasedTokens);\n\tevent Slashed(address indexed holder, uint256 tokens, bytes reason);\n\n\tconstructor() public NetworkAgnostic(\"SapienStaking\", ERC712_VERSION, ROOT_CHAIN_ID) {}\n\n\t// changing admin addresses ------------------------------------------------------------------------------\n\n\tfunction changeController(address _controller) public onlyOwner\n\t{\n\t\tcontroller = _controller;\n\t}\n\n\tfunction changeAssistant(address _assistant) public onlyOwner\n\t{\n\t\tassistant = _assistant;\n\t}\n\n\tfunction changeSlasher(address _slasher) public onlyOwner\n\t{\n\t\tslasher = _slasher;\n\t}\n\n\tfunction changeTokenContract(address _tokenContract) public onlyOwner\n\t{\n\t\ttokenContract = _tokenContract;\n\t}\n\n\n\t// data getters --------------------------------------------------------------------------------------------\n\tfunction getStake(address _holder) public view returns (uint256 tokens, uint256 timestamp)\n\t{\n\t\tStake storage stake = stakes[_holder];\n\t\treturn (stake.tokens, stake.timestamp);\n\t}\n\n\tfunction totalStaked() public view returns (uint256) {\n\t\treturn ISapienPlatformSPN(tokenContract).stakeBalanceOf(address(this));\n\t}\n\n\t// staking ------------------------------------------------------------------------------\n\n\t// stake tokens for beneficiary\n\tfunction _stakeFor(address _beneficiary, uint256 _extraTokens) internal {\n\n\t\trequire(_beneficiary != address(0), \"Beneficiary address is zero\");\n\t\trequire(_beneficiary != address(this), \"Beneficiary address is staking contract\");\n\t\trequire(_extraTokens < SAFE_UINT, \"Staking amount too big\");\n\n\t\t// BENEFICIARY gets the stakes.\n\t\tStake storage stake = stakes[_beneficiary];\n\t\tuint256 currentTokens = stake.tokens;\n\n\t\tstake.tokens = currentTokens.add(_extraTokens);\n\t\tstake.timestamp = now;\n\n\t\t// Report the added stakes\n\t\temit Staked(_beneficiary, _extraTokens);\n\t}\n\n\t// stake tokens, called by the controller contract only\n\tfunction autoStake(address _beneficiary, uint256 _value) public override {\n\t\t// only controller can call this, no meta tx allowed\n\t\trequire(msg.sender == controller, \"Only controller can call this\");\n\n\t\t_stakeFor(_beneficiary, _value);\n\t}\n\n\t// stake tokens batch for beneficiaries\n\tfunction stakeBatch(address[] memory _beneficiaries, uint256[] memory _extraTokens) public {\n\t\t// Check that the arrays are the same size\n\t\tuint256 count = _beneficiaries.length;\n\t\trequire(_extraTokens.length == count, \"Parameter counts do not match\");\n\n\t\tuint256 totalTokens = 0;\n\n\t\t// BENEFICIARIES get the stakes.\n\t\tfor (uint256 i = 0; i < count; i++) {\n\t\t\tuint256 tokens = _extraTokens[i];\n\t\t\t_stakeFor(_beneficiaries[i], tokens);\n\t\t\ttotalTokens = totalTokens.add(tokens);\n\t\t}\n\n\t\t// SENDER pays tokens.\n\t\t// can be called by anyone directly, no meta tx allowed\n\t\trequire(ISapienPlatformSPN(tokenContract).transferFrom(msg.sender, address(this), totalTokens), \"transferFrom() failed\");\n\t}\n\n\n\t// unstaking ------------------------------------------------------------------------------\n\n\t// unstaked staked tokens for sender\n\tfunction _unstakeFor(address _sender, uint256 _requestedTokens) internal {\n\n\t\t// SENDER unlocks his stakes.\n\t\tStake storage stake = stakes[_sender];\n\t\tuint256 currentTokens = stake.tokens;\n\n\t\tuint256 unstakeTokens = _requestedTokens;\n\n\t\t// Cannot withdraw more than current tokens.\n\t\tif (unstakeTokens > currentTokens) {\n\t\t\tunstakeTokens = currentTokens;\n\t\t}\n\n\t\trequire(unstakeTokens > 0, \"Cannot unstake zero tokens\");\n\n\t\t// Unstake tokens.\n\t\tstake.tokens = currentTokens.sub(unstakeTokens);\n\t\tstake.timestamp = now;\n\n\t\t// SENDER gets the tokens.\n\t\trequire(ISapienPlatformSPN(tokenContract).transfer(_sender, unstakeTokens), \"transfer() call failed\");\n\n\t\temit Unstaked(_sender, unstakeTokens);\n\t}\n\n\t// unstake staked tokens\n\tfunction unstake(uint256 _requestedTokens) public {\n\t\t// can be called by anyone, meta tx support\n\t\t_unstakeFor(_msgSender(), _requestedTokens);\n\t}\n\n\t// unstake staked tokens on behalf of the sender\n\tfunction unstakeAssisted(address _sender, uint256 _requestedTokens) public {\n\t\t// only assistant can call this, no meta tx allowed\n\t\trequire(msg.sender == assistant, \"Only assistant can call this\");\n\t\t_unstakeFor(_sender, _requestedTokens);\n\t}\n\n\n\t// slashing ------------------------------------------------------------------------------\n\n\t// slash staked tokens for holder and send them back to contract owner\n\tfunction slash(address _holder, uint256 _tokens, bytes memory _reason) public {\n\t\t// only slasher can call this, no meta tx allowed\n\t\trequire(msg.sender == slasher, \"Only slasher can call this\");\n\t\taddress to = owner();\n\n\t\tuint256 slashTokens = _tokens;\n\t\tuint256 currentTokens = stakes[_holder].tokens;\n\n\t\t// Cannot slash more than the balance\n\t\tif (slashTokens > currentTokens) {\n\t\t\tslashTokens = currentTokens;\n\t\t}\n\n\t\tstakes[_holder].tokens = currentTokens.sub(slashTokens);\n\t\tstakes[_holder].timestamp = now;\n\t\trequire(ISapienPlatformSPN(tokenContract).transfer(to, slashTokens), \"transfer() call failed\");\n\n\t\temit Slashed(_holder, slashTokens, _reason);\n\t}\n\n\n\t// helper function needs to be defined here to override OpenZeppelin GSN function with the same name\n\tfunction _msgSender() internal override view returns (address payable sender)\n\t{\n\t\tif (msg.sender == address(this)) {\n\t\t\tbytes memory array = msg.data;\n\t\t\tuint256 index = msg.data.length;\n\t\t\tassembly {\n\t\t\t// Load the 32 bytes word from memory with the address on the lower 20 bytes, and mask those.\n\t\t\t\tsender := and(\n\t\t\t\tmload(add(array, index)),\n\t\t\t\t0xffffffffffffffffffffffffffffffffffffffff\n\t\t\t\t)\n\t\t\t}\n\t\t} else {\n\t\t\tsender = msg.sender;\n\t\t}\n\t\treturn sender;\n\t}\n\n}",
  "sourcePath": "/home/rbutusov/MaticFinal/contracts/SapienStaking.sol",
  "compiler": {
    "name": "solc",
    "version": "0.6.6+commit.6c089d02.Linux.g++"
  },
  "schemaVersion": "3.2.1",
  "updatedAt": "2020-07-14T09:14:26.397Z",
  "devdoc": {
    "methods": {
      "owner()": {
        "details": "Returns the address of the current owner."
      },
      "renounceOwnership()": {
        "details": "Leaves the contract without owner. It will not be possible to call `onlyOwner` functions anymore. Can only be called by the current owner.     * NOTE: Renouncing ownership will leave the contract without an owner, thereby removing any functionality that is only available to the owner."
      },
      "transferOwnership(address)": {
        "details": "Transfers ownership of the contract to a new account (`newOwner`). Can only be called by the current owner."
      }
    }
  },
  "userdoc": {
    "methods": {}
  }
}