{
  "contractName": "SapienStaking",
  "abi": [
    {
      "anonymous": false,
      "inputs": [
        {
          "indexed": false,
          "internalType": "address",
          "name": "userAddress",
          "type": "address"
        },
        {
          "indexed": false,
          "internalType": "address payable",
          "name": "relayerAddress",
          "type": "address"
        },
        {
          "indexed": false,
          "internalType": "bytes",
          "name": "functionSignature",
          "type": "bytes"
        }
      ],
      "name": "MetaTransactionExecuted",
      "type": "event"
    },
    {
      "anonymous": false,
      "inputs": [
        {
          "indexed": true,
          "internalType": "address",
          "name": "previousOwner",
          "type": "address"
        },
        {
          "indexed": true,
          "internalType": "address",
          "name": "newOwner",
          "type": "address"
        }
      ],
      "name": "OwnershipTransferred",
      "type": "event"
    },
    {
      "anonymous": false,
      "inputs": [
        {
          "indexed": true,
          "internalType": "address",
          "name": "holder",
          "type": "address"
        },
        {
          "indexed": false,
          "internalType": "uint256",
          "name": "tokens",
          "type": "uint256"
        },
        {
          "indexed": false,
          "internalType": "bytes",
          "name": "reason",
          "type": "bytes"
        }
      ],
      "name": "Slashed",
      "type": "event"
    },
    {
      "anonymous": false,
      "inputs": [
        {
          "indexed": true,
          "internalType": "address",
          "name": "holder",
          "type": "address"
        },
        {
          "indexed": false,
          "internalType": "uint256",
          "name": "extraTokens",
          "type": "uint256"
        }
      ],
      "name": "Staked",
      "type": "event"
    },
    {
      "anonymous": false,
      "inputs": [
        {
          "indexed": true,
          "internalType": "address",
          "name": "holder",
          "type": "address"
        },
        {
          "indexed": false,
          "internalType": "uint256",
          "name": "releasedTokens",
          "type": "uint256"
        }
      ],
      "name": "Unstaked",
      "type": "event"
    },
    {
      "inputs": [],
      "name": "CHILD_CHAIN_ID",
      "outputs": [
        {
          "internalType": "uint256",
          "name": "",
          "type": "uint256"
        }
      ],
      "stateMutability": "view",
      "type": "function"
    },
    {
      "inputs": [],
      "name": "CHILD_CHAIN_ID_BYTES",
      "outputs": [
        {
          "internalType": "bytes",
          "name": "",
          "type": "bytes"
        }
      ],
      "stateMutability": "view",
      "type": "function"
    },
    {
      "inputs": [],
      "name": "ERC712_VERSION",
      "outputs": [
        {
          "internalType": "string",
          "name": "",
          "type": "string"
        }
      ],
      "stateMutability": "view",
      "type": "function"
    },
    {
      "inputs": [],
      "name": "ROOT_CHAIN_ID",
      "outputs": [
        {
          "internalType": "uint256",
          "name": "",
          "type": "uint256"
        }
      ],
      "stateMutability": "view",
      "type": "function"
    },
    {
      "inputs": [],
      "name": "ROOT_CHAIN_ID_BYTES",
      "outputs": [
        {
          "internalType": "bytes",
          "name": "",
          "type": "bytes"
        }
      ],
      "stateMutability": "view",
      "type": "function"
    },
    {
      "inputs": [],
      "name": "assistant",
      "outputs": [
        {
          "internalType": "address",
          "name": "",
          "type": "address"
        }
      ],
      "stateMutability": "view",
      "type": "function"
    },
    {
      "inputs": [],
      "name": "controller",
      "outputs": [
        {
          "internalType": "address",
          "name": "",
          "type": "address"
        }
      ],
      "stateMutability": "view",
      "type": "function"
    },
    {
      "inputs": [
        {
          "internalType": "address",
          "name": "userAddress",
          "type": "address"
        },
        {
          "internalType": "bytes",
          "name": "functionSignature",
          "type": "bytes"
        },
        {
          "internalType": "bytes32",
          "name": "sigR",
          "type": "bytes32"
        },
        {
          "internalType": "bytes32",
          "name": "sigS",
          "type": "bytes32"
        },
        {
          "internalType": "uint8",
          "name": "sigV",
          "type": "uint8"
        }
      ],
      "name": "executeMetaTransaction",
      "outputs": [
        {
          "internalType": "bytes",
          "name": "",
          "type": "bytes"
        }
      ],
      "stateMutability": "payable",
      "type": "function",
      "constant": false
    },
    {
      "inputs": [],
      "name": "getChainId",
      "outputs": [
        {
          "internalType": "uint256",
          "name": "",
          "type": "uint256"
        }
      ],
      "stateMutability": "pure",
      "type": "function"
    },
    {
      "inputs": [],
      "name": "getDomainSeperator",
      "outputs": [
        {
          "internalType": "bytes32",
          "name": "",
          "type": "bytes32"
        }
      ],
      "stateMutability": "view",
      "type": "function"
    },
    {
      "inputs": [
        {
          "internalType": "address",
          "name": "user",
          "type": "address"
        }
      ],
      "name": "getNonce",
      "outputs": [
        {
          "internalType": "uint256",
          "name": "nonce",
          "type": "uint256"
        }
      ],
      "stateMutability": "view",
      "type": "function"
    },
    {
      "inputs": [],
      "name": "owner",
      "outputs": [
        {
          "internalType": "address",
          "name": "",
          "type": "address"
        }
      ],
      "stateMutability": "view",
      "type": "function"
    },
    {
      "inputs": [],
      "name": "renounceOwnership",
      "outputs": [],
      "stateMutability": "nonpayable",
      "type": "function",
      "constant": false
    },
    {
      "inputs": [],
      "name": "slasher",
      "outputs": [
        {
          "internalType": "address",
          "name": "",
          "type": "address"
        }
      ],
      "stateMutability": "view",
      "type": "function"
    },
    {
      "inputs": [],
      "name": "tokenContract",
      "outputs": [
        {
          "internalType": "address",
          "name": "",
          "type": "address"
        }
      ],
      "stateMutability": "view",
      "type": "function"
    },
    {
      "inputs": [
        {
          "internalType": "address",
          "name": "newOwner",
          "type": "address"
        }
      ],
      "name": "transferOwnership",
      "outputs": [],
      "stateMutability": "nonpayable",
      "type": "function",
      "constant": false
    },
    {
      "inputs": [
        {
          "internalType": "address",
          "name": "_controller",
          "type": "address"
        }
      ],
      "name": "changeController",
      "outputs": [],
      "stateMutability": "nonpayable",
      "type": "function",
      "constant": false
    },
    {
      "inputs": [
        {
          "internalType": "address",
          "name": "_assistant",
          "type": "address"
        }
      ],
      "name": "changeAssistant",
      "outputs": [],
      "stateMutability": "nonpayable",
      "type": "function",
      "constant": false
    },
    {
      "inputs": [
        {
          "internalType": "address",
          "name": "_slasher",
          "type": "address"
        }
      ],
      "name": "changeSlasher",
      "outputs": [],
      "stateMutability": "nonpayable",
      "type": "function",
      "constant": false
    },
    {
      "inputs": [
        {
          "internalType": "address",
          "name": "_tokenContract",
          "type": "address"
        }
      ],
      "name": "changeTokenContract",
      "outputs": [],
      "stateMutability": "nonpayable",
      "type": "function",
      "constant": false
    },
    {
      "inputs": [
        {
          "internalType": "address",
          "name": "_holder",
          "type": "address"
        }
      ],
      "name": "getStake",
      "outputs": [
        {
          "internalType": "uint256",
          "name": "tokens",
          "type": "uint256"
        },
        {
          "internalType": "uint256",
          "name": "timestamp",
          "type": "uint256"
        }
      ],
      "stateMutability": "view",
      "type": "function"
    },
    {
      "inputs": [],
      "name": "totalStaked",
      "outputs": [
        {
          "internalType": "uint256",
          "name": "",
          "type": "uint256"
        }
      ],
      "stateMutability": "view",
      "type": "function"
    },
    {
      "inputs": [
        {
          "internalType": "address",
          "name": "_beneficiary",
          "type": "address"
        },
        {
          "internalType": "uint256",
          "name": "_value",
          "type": "uint256"
        }
      ],
      "name": "autoStake",
      "outputs": [],
      "stateMutability": "nonpayable",
      "type": "function",
      "constant": false
    },
    {
      "inputs": [
        {
          "internalType": "address[]",
          "name": "_beneficiaries",
          "type": "address[]"
        },
        {
          "internalType": "uint256[]",
          "name": "_extraTokens",
          "type": "uint256[]"
        }
      ],
      "name": "stakeBatch",
      "outputs": [],
      "stateMutability": "nonpayable",
      "type": "function",
      "constant": false
    },
    {
      "inputs": [
        {
          "internalType": "uint256",
          "name": "_requestedTokens",
          "type": "uint256"
        }
      ],
      "name": "unstake",
      "outputs": [],
      "stateMutability": "nonpayable",
      "type": "function",
      "constant": false
    },
    {
      "inputs": [
        {
          "internalType": "address",
          "name": "_sender",
          "type": "address"
        },
        {
          "internalType": "uint256",
          "name": "_requestedTokens",
          "type": "uint256"
        }
      ],
      "name": "unstakeAssisted",
      "outputs": [],
      "stateMutability": "nonpayable",
      "type": "function",
      "constant": false
    },
    {
      "inputs": [
        {
          "internalType": "address",
          "name": "_holder",
          "type": "address"
        },
        {
          "internalType": "uint256",
          "name": "_tokens",
          "type": "uint256"
        },
        {
          "internalType": "bytes",
          "name": "_reason",
          "type": "bytes"
        }
      ],
      "name": "slash",
      "outputs": [],
      "stateMutability": "nonpayable",
      "type": "function",
      "constant": false
    }
  ],
  "bytecode": "0x608060405260008060146101000a81548160ff021916908315150217905550600061002e6100d160201b60201c565b9050806000806101000a81548173ffffffffffffffffffffffffffffffffffffffff021916908373ffffffffffffffffffffffffffffffffffffffff1602179055508073ffffffffffffffffffffffffffffffffffffffff16600073ffffffffffffffffffffffffffffffffffffffff167f8be0079c531659141344cd1fd0a4f28419497f9722a3daafe3b4186f6b6457e060405160405180910390a3506100d9565b600033905090565b612df6806100e86000396000f3fe60806040526004361061019c5760003560e01c806355a373d6116100ec578063a5f251821161008a578063bd2d032711610064578063bd2d032714610a16578063d814386014610b08578063f2fde38b14610c61578063f77c479114610cb25761019c565b8063a5f2518214610909578063b134427114610964578063baffb69f146109bb5761019c565b80637a766460116100c65780637a766460146107f0578063817b1cd21461085c5780638acfcaf7146108875780638da5cb5b146108b25761019c565b806355a373d614610757578063626381a0146107ae578063715018a6146107d95761019c565b80632aa670fe116101595780633408e470116101335780633408e4701461063957806335a3a562146106645780633cebb823146106b5578063523aee69146107065761019c565b80632aa670fe146105485780632d0335ab146105995780632e17de78146105fe5761019c565b80630b54817c146101a15780630c53c51c146102315780630dd7531a146103a65780630f7e59701461043657806320379ee5146104c65780632569cd6c146104f1575b600080fd5b3480156101ad57600080fd5b506101b6610d09565b6040518080602001828103825283818151815260200191508051906020019080838360005b838110156101f65780820151818401526020810190506101db565b50505050905090810190601f1680156102235780820380516001836020036101000a031916815260200191505b509250505060405180910390f35b61032b600480360360a081101561024757600080fd5b81019080803573ffffffffffffffffffffffffffffffffffffffff1690602001909291908035906020019064010000000081111561028457600080fd5b82018360208201111561029657600080fd5b803590602001918460018302840111640100000000831117156102b857600080fd5b91908080601f016020809104026020016040519081016040528093929190818152602001838380828437600081840152601f19601f8201169050808301925050505050505091929192908035906020019092919080359060200190929190803560ff169060200190929190505050610d42565b6040518080602001828103825283818151815260200191508051906020019080838360005b8381101561036b578082015181840152602081019050610350565b50505050905090810190601f1680156103985780820380516001836020036101000a031916815260200191505b509250505060405180910390f35b3480156103b257600080fd5b506103bb611198565b6040518080602001828103825283818151815260200191508051906020019080838360005b838110156103fb5780820151818401526020810190506103e0565b50505050905090810190601f1680156104285780820380516001836020036101000a031916815260200191505b509250505060405180910390f35b34801561044257600080fd5b5061044b6111d1565b6040518080602001828103825283818151815260200191508051906020019080838360005b8381101561048b578082015181840152602081019050610470565b50505050905090810190601f1680156104b85780820380516001836020036101000a031916815260200191505b509250505060405180910390f35b3480156104d257600080fd5b506104db61120a565b6040518082815260200191505060405180910390f35b3480156104fd57600080fd5b50610506611214565b604051808273ffffffffffffffffffffffffffffffffffffffff1673ffffffffffffffffffffffffffffffffffffffff16815260200191505060405180910390f35b34801561055457600080fd5b506105976004803603602081101561056b57600080fd5b81019080803573ffffffffffffffffffffffffffffffffffffffff16906020019092919050505061123a565b005b3480156105a557600080fd5b506105e8600480360360208110156105bc57600080fd5b81019080803573ffffffffffffffffffffffffffffffffffffffff169060200190929190505050611347565b6040518082815260200191505060405180910390f35b34801561060a57600080fd5b506106376004803603602081101561062157600080fd5b8101908080359060200190929190505050611390565b005b34801561064557600080fd5b5061064e6113a4565b6040518082815260200191505060405180910390f35b34801561067057600080fd5b506106b36004803603602081101561068757600080fd5b81019080803573ffffffffffffffffffffffffffffffffffffffff1690602001909291905050506113b1565b005b3480156106c157600080fd5b50610704600480360360208110156106d857600080fd5b81019080803573ffffffffffffffffffffffffffffffffffffffff1690602001909291905050506114be565b005b34801561071257600080fd5b506107556004803603602081101561072957600080fd5b81019080803573ffffffffffffffffffffffffffffffffffffffff1690602001909291905050506115cb565b005b34801561076357600080fd5b5061076c6116d8565b604051808273ffffffffffffffffffffffffffffffffffffffff1673ffffffffffffffffffffffffffffffffffffffff16815260200191505060405180910390f35b3480156107ba57600080fd5b506107c36116fe565b6040518082815260200191505060405180910390f35b3480156107e557600080fd5b506107ee611703565b005b3480156107fc57600080fd5b5061083f6004803603602081101561081357600080fd5b81019080803573ffffffffffffffffffffffffffffffffffffffff16906020019092919050505061188b565b604051808381526020018281526020019250505060405180910390f35b34801561086857600080fd5b506108716118e5565b6040518082815260200191505060405180910390f35b34801561089357600080fd5b5061089c6119c6565b6040518082815260200191505060405180910390f35b3480156108be57600080fd5b506108c76119cb565b604051808273ffffffffffffffffffffffffffffffffffffffff1673ffffffffffffffffffffffffffffffffffffffff16815260200191505060405180910390f35b34801561091557600080fd5b506109626004803603604081101561092c57600080fd5b81019080803573ffffffffffffffffffffffffffffffffffffffff169060200190929190803590602001909291905050506119f4565b005b34801561097057600080fd5b50610979611ac5565b604051808273ffffffffffffffffffffffffffffffffffffffff1673ffffffffffffffffffffffffffffffffffffffff16815260200191505060405180910390f35b3480156109c757600080fd5b50610a14600480360360408110156109de57600080fd5b81019080803573ffffffffffffffffffffffffffffffffffffffff16906020019092919080359060200190929190505050611aeb565b005b348015610a2257600080fd5b50610b0660048036036060811015610a3957600080fd5b81019080803573ffffffffffffffffffffffffffffffffffffffff1690602001909291908035906020019092919080359060200190640100000000811115610a8057600080fd5b820183602082011115610a9257600080fd5b80359060200191846001830284011164010000000083111715610ab457600080fd5b91908080601f016020809104026020016040519081016040528093929190818152602001838380828437600081840152601f19601f820116905080830192505050505050509192919290505050611bbc565b005b348015610b1457600080fd5b50610c5f60048036036040811015610b2b57600080fd5b8101908080359060200190640100000000811115610b4857600080fd5b820183602082011115610b5a57600080fd5b80359060200191846020830284011164010000000083111715610b7c57600080fd5b919080806020026020016040519081016040528093929190818152602001838360200280828437600081840152601f19601f82011690508083019250505050505050919291929080359060200190640100000000811115610bdc57600080fd5b820183602082011115610bee57600080fd5b80359060200191846020830284011164010000000083111715610c1057600080fd5b919080806020026020016040519081016040528093929190818152602001838360200280828437600081840152601f19601f820116905080830192505050505050509192919290505050611f9c565b005b348015610c6d57600080fd5b50610cb060048036036020811015610c8457600080fd5b81019080803573ffffffffffffffffffffffffffffffffffffffff169060200190929190505050612214565b005b348015610cbe57600080fd5b50610cc7612421565b604051808273ffffffffffffffffffffffffffffffffffffffff1673ffffffffffffffffffffffffffffffffffffffff16815260200191505060405180910390f35b6040518060400160405280600181526020017f890000000000000000000000000000000000000000000000000000000000000081525081565b6060610d4c612cb3565b6040518060600160405280600260008a73ffffffffffffffffffffffffffffffffffffffff1673ffffffffffffffffffffffffffffffffffffffff1681526020019081526020016000205481526020018873ffffffffffffffffffffffffffffffffffffffff168152602001878152509050610dcb8782878787612447565b610e20576040517f08c379a0000000000000000000000000000000000000000000000000000000008152600401808060200182810382526021815260200180612da06021913960400191505060405180910390fd5b610e736001600260008a73ffffffffffffffffffffffffffffffffffffffff1673ffffffffffffffffffffffffffffffffffffffff1681526020019081526020016000205461257e90919063ffffffff16565b600260008973ffffffffffffffffffffffffffffffffffffffff1673ffffffffffffffffffffffffffffffffffffffff168152602001908152602001600020819055507f5845892132946850460bff5a0083f71031bc5bf9aadcd40f1de79423eac9b10b873388604051808473ffffffffffffffffffffffffffffffffffffffff1673ffffffffffffffffffffffffffffffffffffffff1681526020018373ffffffffffffffffffffffffffffffffffffffff1673ffffffffffffffffffffffffffffffffffffffff16815260200180602001828103825283818151815260200191508051906020019080838360005b83811015610f7e578082015181840152602081019050610f63565b50505050905090810190601f168015610fab5780820380516001836020036101000a031916815260200191505b5094505050505060405180910390a1600060603073ffffffffffffffffffffffffffffffffffffffff16888a6040516020018083805190602001908083835b6020831061100d5780518252602082019150602081019050602083039250610fea565b6001836020036101000a0380198251168184511680821785525050505050509050018273ffffffffffffffffffffffffffffffffffffffff1673ffffffffffffffffffffffffffffffffffffffff1660601b8152601401925050506040516020818303038152906040526040518082805190602001908083835b602083106110aa5780518252602082019150602081019050602083039250611087565b6001836020036101000a0380198251168184511680821785525050505050509050019150506000604051808303816000865af19150503d806000811461110c576040519150601f19603f3d011682016040523d82523d6000602084013e611111565b606091505b509150915081611189576040517f08c379a000000000000000000000000000000000000000000000000000000000815260040180806020018281038252601c8152602001807f46756e6374696f6e2063616c6c206e6f74207375636365737366756c0000000081525060200191505060405180910390fd5b80935050505095945050505050565b6040518060400160405280600181526020017f010000000000000000000000000000000000000000000000000000000000000081525081565b6040518060400160405280600181526020017f310000000000000000000000000000000000000000000000000000000000000081525081565b6000600154905090565b600560009054906101000a900473ffffffffffffffffffffffffffffffffffffffff1681565b611242612606565b73ffffffffffffffffffffffffffffffffffffffff166000809054906101000a900473ffffffffffffffffffffffffffffffffffffffff1673ffffffffffffffffffffffffffffffffffffffff1614611303576040517f08c379a00000000000000000000000000000000000000000000000000000000081526004018080602001828103825260208152602001807f4f776e61626c653a2063616c6c6572206973206e6f7420746865206f776e657281525060200191505060405180910390fd5b80600560006101000a81548173ffffffffffffffffffffffffffffffffffffffff021916908373ffffffffffffffffffffffffffffffffffffffff16021790555050565b6000600260008373ffffffffffffffffffffffffffffffffffffffff1673ffffffffffffffffffffffffffffffffffffffff168152602001908152602001600020549050919050565b6113a161139b612606565b8261260e565b50565b6000804690508091505090565b6113b9612606565b73ffffffffffffffffffffffffffffffffffffffff166000809054906101000a900473ffffffffffffffffffffffffffffffffffffffff1673ffffffffffffffffffffffffffffffffffffffff161461147a576040517f08c379a00000000000000000000000000000000000000000000000000000000081526004018080602001828103825260208152602001807f4f776e61626c653a2063616c6c6572206973206e6f7420746865206f776e657281525060200191505060405180910390fd5b80600660006101000a81548173ffffffffffffffffffffffffffffffffffffffff021916908373ffffffffffffffffffffffffffffffffffffffff16021790555050565b6114c6612606565b73ffffffffffffffffffffffffffffffffffffffff166000809054906101000a900473ffffffffffffffffffffffffffffffffffffffff1673ffffffffffffffffffffffffffffffffffffffff1614611587576040517f08c379a00000000000000000000000000000000000000000000000000000000081526004018080602001828103825260208152602001807f4f776e61626c653a2063616c6c6572206973206e6f7420746865206f776e657281525060200191505060405180910390fd5b80600460006101000a81548173ffffffffffffffffffffffffffffffffffffffff021916908373ffffffffffffffffffffffffffffffffffffffff16021790555050565b6115d3612606565b73ffffffffffffffffffffffffffffffffffffffff166000809054906101000a900473ffffffffffffffffffffffffffffffffffffffff1673ffffffffffffffffffffffffffffffffffffffff1614611694576040517f08c379a00000000000000000000000000000000000000000000000000000000081526004018080602001828103825260208152602001807f4f776e61626c653a2063616c6c6572206973206e6f7420746865206f776e657281525060200191505060405180910390fd5b80600760006101000a81548173ffffffffffffffffffffffffffffffffffffffff021916908373ffffffffffffffffffffffffffffffffffffffff16021790555050565b600760009054906101000a900473ffffffffffffffffffffffffffffffffffffffff1681565b608981565b61170b612606565b73ffffffffffffffffffffffffffffffffffffffff166000809054906101000a900473ffffffffffffffffffffffffffffffffffffffff1673ffffffffffffffffffffffffffffffffffffffff16146117cc576040517f08c379a00000000000000000000000000000000000000000000000000000000081526004018080602001828103825260208152602001807f4f776e61626c653a2063616c6c6572206973206e6f7420746865206f776e657281525060200191505060405180910390fd5b600073ffffffffffffffffffffffffffffffffffffffff166000809054906101000a900473ffffffffffffffffffffffffffffffffffffffff1673ffffffffffffffffffffffffffffffffffffffff167f8be0079c531659141344cd1fd0a4f28419497f9722a3daafe3b4186f6b6457e060405160405180910390a360008060006101000a81548173ffffffffffffffffffffffffffffffffffffffff021916908373ffffffffffffffffffffffffffffffffffffffff160217905550565b6000806000600360008573ffffffffffffffffffffffffffffffffffffffff1673ffffffffffffffffffffffffffffffffffffffff1681526020019081526020016000209050806000015481600101549250925050915091565b6000600760009054906101000a900473ffffffffffffffffffffffffffffffffffffffff1673ffffffffffffffffffffffffffffffffffffffff1663af46aa08306040518263ffffffff1660e01b8152600401808273ffffffffffffffffffffffffffffffffffffffff1673ffffffffffffffffffffffffffffffffffffffff16815260200191505060206040518083038186803b15801561198657600080fd5b505afa15801561199a573d6000803e3d6000fd5b505050506040513d60208110156119b057600080fd5b8101908080519060200190929190505050905090565b600181565b60008060009054906101000a900473ffffffffffffffffffffffffffffffffffffffff16905090565b600560009054906101000a900473ffffffffffffffffffffffffffffffffffffffff1673ffffffffffffffffffffffffffffffffffffffff163373ffffffffffffffffffffffffffffffffffffffff1614611ab7576040517f08c379a000000000000000000000000000000000000000000000000000000000815260040180806020018281038252601c8152602001807f4f6e6c7920617373697374616e742063616e2063616c6c20746869730000000081525060200191505060405180910390fd5b611ac1828261260e565b5050565b600660009054906101000a900473ffffffffffffffffffffffffffffffffffffffff1681565b600460009054906101000a900473ffffffffffffffffffffffffffffffffffffffff1673ffffffffffffffffffffffffffffffffffffffff163373ffffffffffffffffffffffffffffffffffffffff1614611bae576040517f08c379a000000000000000000000000000000000000000000000000000000000815260040180806020018281038252601d8152602001807f4f6e6c7920636f6e74726f6c6c65722063616e2063616c6c207468697300000081525060200191505060405180910390fd5b611bb882826128b0565b5050565b600660009054906101000a900473ffffffffffffffffffffffffffffffffffffffff1673ffffffffffffffffffffffffffffffffffffffff163373ffffffffffffffffffffffffffffffffffffffff1614611c7f576040517f08c379a000000000000000000000000000000000000000000000000000000000815260040180806020018281038252601a8152602001807f4f6e6c7920736c61736865722063616e2063616c6c207468697300000000000081525060200191505060405180910390fd5b6000611c896119cb565b905060008390506000600360008773ffffffffffffffffffffffffffffffffffffffff1673ffffffffffffffffffffffffffffffffffffffff16815260200190815260200160002060000154905080821115611ce3578091505b611cf68282612a9c90919063ffffffff16565b600360008873ffffffffffffffffffffffffffffffffffffffff1673ffffffffffffffffffffffffffffffffffffffff1681526020019081526020016000206000018190555042600360008873ffffffffffffffffffffffffffffffffffffffff1673ffffffffffffffffffffffffffffffffffffffff16815260200190815260200160002060010181905550600760009054906101000a900473ffffffffffffffffffffffffffffffffffffffff1673ffffffffffffffffffffffffffffffffffffffff1663a9059cbb84846040518363ffffffff1660e01b8152600401808373ffffffffffffffffffffffffffffffffffffffff1673ffffffffffffffffffffffffffffffffffffffff16815260200182815260200192505050602060405180830381600087803b158015611e2c57600080fd5b505af1158015611e40573d6000803e3d6000fd5b505050506040513d6020811015611e5657600080fd5b8101908080519060200190929190505050611ed9576040517f08c379a00000000000000000000000000000000000000000000000000000000081526004018080602001828103825260168152602001807f7472616e7366657228292063616c6c206661696c65640000000000000000000081525060200191505060405180910390fd5b8573ffffffffffffffffffffffffffffffffffffffff167f1a0a5c81c2e13153fb1f989295e0deca0190f3c9b856051229e7985a71c1cfb283866040518083815260200180602001828103825283818151815260200191508051906020019080838360005b83811015611f59578082015181840152602081019050611f3e565b50505050905090810190601f168015611f865780820380516001836020036101000a031916815260200191505b50935050505060405180910390a2505050505050565b60008251905080825114612018576040517f08c379a000000000000000000000000000000000000000000000000000000000815260040180806020018281038252601d8152602001807f506172616d6574657220636f756e747320646f206e6f74206d6174636800000081525060200191505060405180910390fd5b600080905060008090505b8281101561208357600084828151811061203957fe5b6020026020010151905061206086838151811061205257fe5b6020026020010151826128b0565b612073818461257e90919063ffffffff16565b9250508080600101915050612023565b50600760009054906101000a900473ffffffffffffffffffffffffffffffffffffffff1673ffffffffffffffffffffffffffffffffffffffff166323b872dd3330846040518463ffffffff1660e01b8152600401808473ffffffffffffffffffffffffffffffffffffffff1673ffffffffffffffffffffffffffffffffffffffff1681526020018373ffffffffffffffffffffffffffffffffffffffff1673ffffffffffffffffffffffffffffffffffffffff1681526020018281526020019350505050602060405180830381600087803b15801561216157600080fd5b505af1158015612175573d6000803e3d6000fd5b505050506040513d602081101561218b57600080fd5b810190808051906020019092919050505061220e576040517f08c379a00000000000000000000000000000000000000000000000000000000081526004018080602001828103825260158152602001807f7472616e7366657246726f6d2829206661696c6564000000000000000000000081525060200191505060405180910390fd5b50505050565b61221c612606565b73ffffffffffffffffffffffffffffffffffffffff166000809054906101000a900473ffffffffffffffffffffffffffffffffffffffff1673ffffffffffffffffffffffffffffffffffffffff16146122dd576040517f08c379a00000000000000000000000000000000000000000000000000000000081526004018080602001828103825260208152602001807f4f776e61626c653a2063616c6c6572206973206e6f7420746865206f776e657281525060200191505060405180910390fd5b600073ffffffffffffffffffffffffffffffffffffffff168173ffffffffffffffffffffffffffffffffffffffff161415612363576040517f08c379a0000000000000000000000000000000000000000000000000000000008152600401808060200182810382526026815260200180612d2e6026913960400191505060405180910390fd5b8073ffffffffffffffffffffffffffffffffffffffff166000809054906101000a900473ffffffffffffffffffffffffffffffffffffffff1673ffffffffffffffffffffffffffffffffffffffff167f8be0079c531659141344cd1fd0a4f28419497f9722a3daafe3b4186f6b6457e060405160405180910390a3806000806101000a81548173ffffffffffffffffffffffffffffffffffffffff021916908373ffffffffffffffffffffffffffffffffffffffff16021790555050565b600460009054906101000a900473ffffffffffffffffffffffffffffffffffffffff1681565b60008073ffffffffffffffffffffffffffffffffffffffff168673ffffffffffffffffffffffffffffffffffffffff1614156124ce576040517f08c379a0000000000000000000000000000000000000000000000000000000008152600401808060200182810382526025815260200180612d546025913960400191505060405180910390fd5b60016124e16124dc87612ae6565b612b8c565b83868660405160008152602001604052604051808581526020018460ff1660ff1681526020018381526020018281526020019450505050506020604051602081039080840390855afa15801561253b573d6000803e3d6000fd5b5050506020604051035173ffffffffffffffffffffffffffffffffffffffff168673ffffffffffffffffffffffffffffffffffffffff1614905095945050505050565b6000808284019050838110156125fc576040517f08c379a000000000000000000000000000000000000000000000000000000000815260040180806020018281038252601b8152602001807f536166654d6174683a206164646974696f6e206f766572666c6f77000000000081525060200191505060405180910390fd5b8091505092915050565b600033905090565b6000600360008473ffffffffffffffffffffffffffffffffffffffff1673ffffffffffffffffffffffffffffffffffffffff168152602001908152602001600020905060008160000154905060008390508181111561266b578190505b600081116126e1576040517f08c379a000000000000000000000000000000000000000000000000000000000815260040180806020018281038252601a8152602001807f43616e6e6f7420756e7374616b65207a65726f20746f6b656e7300000000000081525060200191505060405180910390fd5b6126f48183612a9c90919063ffffffff16565b8360000181905550428360010181905550600760009054906101000a900473ffffffffffffffffffffffffffffffffffffffff1673ffffffffffffffffffffffffffffffffffffffff1663a9059cbb86836040518363ffffffff1660e01b8152600401808373ffffffffffffffffffffffffffffffffffffffff1673ffffffffffffffffffffffffffffffffffffffff16815260200182815260200192505050602060405180830381600087803b1580156127ae57600080fd5b505af11580156127c2573d6000803e3d6000fd5b505050506040513d60208110156127d857600080fd5b810190808051906020019092919050505061285b576040517f08c379a00000000000000000000000000000000000000000000000000000000081526004018080602001828103825260168152602001807f7472616e7366657228292063616c6c206661696c65640000000000000000000081525060200191505060405180910390fd5b8473ffffffffffffffffffffffffffffffffffffffff167f0f5bb82176feb1b5e747e28471aa92156a04d9f3ab9f45f28e2d704232b93f75826040518082815260200191505060405180910390a25050505050565b600073ffffffffffffffffffffffffffffffffffffffff168273ffffffffffffffffffffffffffffffffffffffff161415612953576040517f08c379a000000000000000000000000000000000000000000000000000000000815260040180806020018281038252601b8152602001807f42656e65666963696172792061646472657373206973207a65726f000000000081525060200191505060405180910390fd5b3073ffffffffffffffffffffffffffffffffffffffff168273ffffffffffffffffffffffffffffffffffffffff1614156129d8576040517f08c379a0000000000000000000000000000000000000000000000000000000008152600401808060200182810382526027815260200180612d796027913960400191505060405180910390fd5b6000600360008473ffffffffffffffffffffffffffffffffffffffff1673ffffffffffffffffffffffffffffffffffffffff1681526020019081526020016000209050600081600001549050612a37838261257e90919063ffffffff16565b82600001819055504282600101819055508373ffffffffffffffffffffffffffffffffffffffff167f9e71bc8eea02a63969f509818f2dafb9254532904319f9dbda79b67bd34a5f3d846040518082815260200191505060405180910390a250505050565b6000612ade83836040518060400160405280601e81526020017f536166654d6174683a207375627472616374696f6e206f766572666c6f770000815250612bf3565b905092915050565b6000604051806080016040528060438152602001612ceb604391398051906020012082600001518360200151846040015180519060200120604051602001808581526020018481526020018373ffffffffffffffffffffffffffffffffffffffff1673ffffffffffffffffffffffffffffffffffffffff168152602001828152602001945050505050604051602081830303815290604052805190602001209050919050565b6000612b9661120a565b8260405160200180807f190100000000000000000000000000000000000000000000000000000000000081525060020183815260200182815260200192505050604051602081830303815290604052805190602001209050919050565b6000838311158290612ca0576040517f08c379a00000000000000000000000000000000000000000000000000000000081526004018080602001828103825283818151815260200191508051906020019080838360005b83811015612c65578082015181840152602081019050612c4a565b50505050905090810190601f168015612c925780820380516001836020036101000a031916815260200191505b509250505060405180910390fd5b5060008385039050809150509392505050565b604051806060016040528060008152602001600073ffffffffffffffffffffffffffffffffffffffff16815260200160608152509056fe4d6574615472616e73616374696f6e2875696e74323536206e6f6e63652c616464726573732066726f6d2c62797465732066756e6374696f6e5369676e6174757265294f776e61626c653a206e6577206f776e657220697320746865207a65726f20616464726573734e61746976654d6574615472616e73616374696f6e3a20494e56414c49445f5349474e455242656e65666963696172792061646472657373206973207374616b696e6720636f6e74726163745369676e657220616e64207369676e617475726520646f206e6f74206d61746368a2646970667358221220836e15c35b99ec3e920af2bc7b82233938e1b701787e75fb66084bb5f41fd0d164736f6c63430006060033",
  "immutableReferences": {},
  "source": "pragma solidity ^0.6.6;\n\nimport \"@openzeppelin/contracts/access/Ownable.sol\";\nimport \"@openzeppelin/contracts/math/SafeMath.sol\";\nimport {NativeMetaTransaction} from \"./common/NativeMetaTransaction.sol\";\nimport \"./ISapienPlatformSPN.sol\";\nimport \"./ISapienStaking.sol\";\nimport \"./ChainConstants.sol\";\n\n\ncontract SapienStaking is ISapienStaking, Ownable, NativeMetaTransaction, ChainConstants {\n\n\tusing SafeMath for uint256;\n\n\tstruct Stake {\n\t\tuint256 tokens;                // Total amount of stake\n\t\tuint256 timestamp;             // Time of last update\n\t}\n\n\tmapping(address => Stake) stakes;\n\taddress public controller;\n\taddress public assistant;\n\taddress public slasher;\n\taddress public tokenContract;\n\n\tevent Staked(address indexed holder, uint256 extraTokens);\n\tevent Unstaked(address indexed holder, uint256 releasedTokens);\n\tevent Slashed(address indexed holder, uint256 tokens, bytes reason);\n\n\t// changing admin addresses ------------------------------------------------------------------------------\n\n\tfunction changeController(address _controller) public onlyOwner\n\t{\n\t\tcontroller = _controller;\n\t}\n\n\tfunction changeAssistant(address _assistant) public onlyOwner\n\t{\n\t\tassistant = _assistant;\n\t}\n\n\tfunction changeSlasher(address _slasher) public onlyOwner\n\t{\n\t\tslasher = _slasher;\n\t}\n\n\tfunction changeTokenContract(address _tokenContract) public onlyOwner\n\t{\n\t\ttokenContract = _tokenContract;\n\t}\n\n\n\t// data getters --------------------------------------------------------------------------------------------\n\tfunction getStake(address _holder) public view returns (uint256 tokens, uint256 timestamp)\n\t{\n\t\tStake storage stake = stakes[_holder];\n\t\treturn (stake.tokens, stake.timestamp);\n\t}\n\n\tfunction totalStaked() public view returns (uint256) {\n\t\treturn ISapienPlatformSPN(tokenContract).stakeBalanceOf(address(this));\n\t}\n\n\t// staking ------------------------------------------------------------------------------\n\n\t// stake tokens for beneficiary\n\tfunction _stakeFor(address _beneficiary, uint256 _extraTokens) internal {\n\n\t\trequire(_beneficiary != address(0), \"Beneficiary address is zero\");\n\t\trequire(_beneficiary != address(this), \"Beneficiary address is staking contract\");\n\n\t\t// BENEFICIARY gets the stakes.\n\t\tStake storage stake = stakes[_beneficiary];\n\t\tuint256 currentTokens = stake.tokens;\n\n\t\tstake.tokens = currentTokens.add(_extraTokens);\n\t\tstake.timestamp = now;\n\n\t\t// Report the added stakes\n\t\temit Staked(_beneficiary, _extraTokens);\n\t}\n\n\t// stake tokens, called by the controller contract only\n\tfunction autoStake(address _beneficiary, uint256 _value) public override {\n\t\t// only controller can call this, no meta tx allowed\n\t\trequire(msg.sender == controller, \"Only controller can call this\");\n\n\t\t_stakeFor(_beneficiary, _value);\n\t}\n\n\t// stake tokens batch for beneficiaries\n\tfunction stakeBatch(address[] memory _beneficiaries, uint256[] memory _extraTokens) public {\n\t\t// Check that the arrays are the same size\n\t\tuint256 count = _beneficiaries.length;\n\t\trequire(_extraTokens.length == count, \"Parameter counts do not match\");\n\n\t\tuint256 totalTokens = 0;\n\n\t\t// BENEFICIARIES get the stakes.\n\t\tfor (uint256 i = 0; i < count; i++) {\n\t\t\tuint256 tokens = _extraTokens[i];\n\t\t\t_stakeFor(_beneficiaries[i], tokens);\n\t\t\ttotalTokens = totalTokens.add(tokens);\n\t\t}\n\n\t\t// SENDER pays tokens.\n\t\t// can be called by anyone directly, no meta tx allowed\n\t\trequire(ISapienPlatformSPN(tokenContract).transferFrom(msg.sender, address(this), totalTokens), \"transferFrom() failed\");\n\t}\n\n\n\t// unstaking ------------------------------------------------------------------------------\n\n\t// unstaked staked tokens for sender\n\tfunction _unstakeFor(address _sender, uint256 _requestedTokens) internal {\n\n\t\t// SENDER unlocks his stakes.\n\t\tStake storage stake = stakes[_sender];\n\t\tuint256 currentTokens = stake.tokens;\n\n\t\tuint256 unstakeTokens = _requestedTokens;\n\n\t\t// Cannot withdraw more than current tokens.\n\t\tif (unstakeTokens > currentTokens) {\n\t\t\tunstakeTokens = currentTokens;\n\t\t}\n\n\t\trequire(unstakeTokens > 0, \"Cannot unstake zero tokens\");\n\n\t\t// Unstake tokens.\n\t\tstake.tokens = currentTokens.sub(unstakeTokens);\n\t\tstake.timestamp = now;\n\n\t\t// SENDER gets the tokens.\n\t\trequire(ISapienPlatformSPN(tokenContract).transfer(_sender, unstakeTokens), \"transfer() call failed\");\n\n\t\temit Unstaked(_sender, unstakeTokens);\n\t}\n\n\t// unstake staked tokens\n\tfunction unstake(uint256 _requestedTokens) public {\n\t\t// can be called by anyone, meta tx support\n\t\t_unstakeFor(_msgSender(), _requestedTokens);\n\t}\n\n\t// unstake staked tokens on behalf of the sender\n\tfunction unstakeAssisted(address _sender, uint256 _requestedTokens) public {\n\t\t// only assistant can call this, no meta tx allowed\n\t\trequire(msg.sender == assistant, \"Only assistant can call this\");\n\t\t_unstakeFor(_sender, _requestedTokens);\n\t}\n\n\n\t// slashing ------------------------------------------------------------------------------\n\n\t// slash staked tokens for holder and send them back to contract owner\n\tfunction slash(address _holder, uint256 _tokens, bytes memory _reason) public {\n\t\t// only slasher can call this, no meta tx allowed\n\t\trequire(msg.sender == slasher, \"Only slasher can call this\");\n\t\taddress to = owner();\n\n\t\tuint256 slashTokens = _tokens;\n\t\tuint256 currentTokens = stakes[_holder].tokens;\n\n\t\t// Cannot slash more than the balance\n\t\tif (slashTokens > currentTokens) {\n\t\t\tslashTokens = currentTokens;\n\t\t}\n\n\t\tstakes[_holder].tokens = currentTokens.sub(slashTokens);\n\t\tstakes[_holder].timestamp = now;\n\t\trequire(ISapienPlatformSPN(tokenContract).transfer(to, slashTokens), \"transfer() call failed\");\n\n\t\temit Slashed(_holder, slashTokens, _reason);\n\t}\n\n}\n",
  "sourcePath": "/home/rbutusov/MaticFinal/contracts/SapienStaking.sol",
  "compiler": {
    "name": "solc",
    "version": "0.6.6+commit.6c089d02.Linux.g++"
  },
  "schemaVersion": "3.2.1",
  "updatedAt": "2020-09-18T20:17:58.080Z",
  "devdoc": {
    "methods": {
      "owner()": {
        "details": "Returns the address of the current owner."
      },
      "renounceOwnership()": {
        "details": "Leaves the contract without owner. It will not be possible to call `onlyOwner` functions anymore. Can only be called by the current owner.     * NOTE: Renouncing ownership will leave the contract without an owner, thereby removing any functionality that is only available to the owner."
      },
      "transferOwnership(address)": {
        "details": "Transfers ownership of the contract to a new account (`newOwner`). Can only be called by the current owner."
      }
    }
  },
  "userdoc": {
    "methods": {}
  }
}